:020000041000EA
:10000000606D0E21513004105370021053700210B5
:100010005370021053700210537002100000000061
:1000200000000000000000000000000053700210FB
:100030005370021000000000537002103D56031070
:10004000FFD8FFE000104A464946000101010B13AA
:100050000B130000FFDB0084000202020202020216
:10006000020202030302030304030303030406045E
:100070000404040406090506050506050908090720
:10008000070709080E0B09090B0E100D0C0D1013B4
:100090001111131817181F1F2A010202020202026F
:1000A0000202020203030203030403030303040620
:1000B00004040404040609050605050605090809E3
:1000C00007070709080E0B09090B0E100D0C0D1080
:1000D000131111131817181F1F2AFFC00011080051
:1000E000C7014A03011100021101031101FFC400FD
:1000F000AF00000203010101010101000000000046
:100100000000060704050809030201000A100002A6
:1001100001030302050204050303020603010102B1
:100120000304051100061221310713224151146105
:100130000832718115234252911662A12433B143D2
:100140008209253472C1D11753B2E10100020203C2
:10015000010101000000000000000000040503068A
:10016000020708010009110002010303030303024F
:100170000503040202030001020300041105122119
:100180000631411322510761711432152342528105
:10019000082491163362A1537282D193B1C1FFDA60
:1001A000000C03010002110311003F00E68EF2A0D3
:1001B00037CF0AEF025495AA2D7253DCE279E4E7B7
:1001C0002066E3148028E8B95393AD5BA6DCFE9368
:1001D000A8E28F385B8062207627C55634C6DB27BD
:1001E000DA92DB3B64C55302DFB70F286CC39986F4
:1001F0003078BD4B46393004F6007F9D5A754D5B13
:10020000D3736766375CE36B73DA89BFBE2434311E
:100210007EEA3DAEBED252B1A0B4AC51D14B1C531C
:10022000521841E2635FCDC0A64964272C0FB695F2
:1002300045652CC3D5B890970D861F0695AC0D2A41
:10024000879490E0E28405FAB2A84CFE61596612E8
:10025000B33760951190642EBEEAC9D42E99FE86FC
:1002600018C290A08F3F8A33D14455C006BF56F3C1
:10027000514F0CA6190CBF4F551BC613AA80F9721B
:10028000CB8ECA47CF50751BD944E40206083C57B1
:10029000CD1A923814CBB0788F77B53CD410DC5A95
:1002A0006A39657CD2CC43C44B9F41319E8A73909E
:1002B000C7482FB458640CE89B4E3391507E995B2D
:1002C0003814DEB1DE6BEBA7796E963B5456496964
:1002D000CB52CD462582A98AB0675890B150F93FDC
:1002E0009CF42355CB88AD522D96724BFAC53860DD
:1002F000DFB6A09628E3C64F35ED5DBDA9A082B05C
:100300005A2D50412B46D2429365E494C43D622657
:10031000185E4077FBEBC83489EE1834B23153F1E4
:1003200041BCE800E33DE832A779D6D53CAAF56E9A
:10033000D4FE8688E0281118C3F1007456C7523ED7
:10034000469B0D12D907FDBCB7C9AF1243DBFA6A51
:100350001536ECB953CCED97E4F85719272154A979
:1003600019F81FF3A1A5D1E2E40F1C834C60746C53
:100370000069A5B76BF66EF2A2FE15BAED5054AB4C
:100380002242951C7CAA8A52CC783473A8C83D714D
:100390008391A4574353D32459ACA77D83928DC82E
:1003A000346236CC9CF9ED49EF133C2CAED8229246
:1003B000E74332D6EDAAF38A5AD520B23E7FED4C00
:1003C0000767F8F63AB1E87AE26AA1A39808EF1352
:1003D000F745F6F914646FB85285A5C03D0E48275D
:1003E000A7C6AC9B32783527E2BF88C272F28CB2C6
:1003F00038531C718E6D216ECAA35EC6A0BE0B055C
:1004000000F2C6BE2C231BDCE16886C5E1CEE749BD
:100410005AEB7ABB2D9D256E5C15DA49A3523D251A
:100420008290147EA7585FEA961B4410C22674E09F
:10043000D0AFA846DEC85037C9A369D2A22885022A
:100440006F8B9999B11E642C149033D78B1E8476D0
:100450003AAEE54CA663A64616A44910E0B002AA3F
:1004600020D8FB86E01AA9278AA8975EB24BC5CF91
:1004700023C41FE67B1CE8E8F54B58F0A20298EF76
:100480008158C8F1EE249E287F72DBAEDB7628050A
:10049000CEDF3538994F07910847C1C1E0DD8E3472
:1004A000758BC77B2318E407EC3BD7882293F6357E
:1004B000262F37533B3C309E9FD6DF3F61AB75A55F
:1004C000AFA632E3914CA18762826867A75383A6E7
:1004D0002187145E735F24027DF3AFB35F55BD04C3
:1004E000F702529E24336480885799C9F65F7D09CC
:1004F0003A4182EC42FC9ED43CBE9AE4BF15A5363C
:1005000067E1EBC6BDE31435B41B0AAE9EDE61594C
:10051000BEAEE445040D19E8194D415247E8355285
:10052000D43A8744B3628D7AAD20C8D918DC6833D9
:100530002C7E0D30C7E0EBC4FAA7F29AFF00B52974
:1005400026ECE8F5EED8CFB7248DB4A075B692802E
:10055000B7A170C9F3B6A05BA8F76D26846FBF8200
:10056000EF1CAD4D2CF4564A0BEA73E18B15C61AFD
:10057000D9CB6396043957CE3DB1A6D6DD71A14FD4
:1005800088BD6689F192245C014525CAB7B4726AB8
:10059000C3F0F3BFF757E1ABC5CA7937359ABE8AC6
:1005A000DB5445BF715A2B60782734CC7FEE08E4CA
:1005B00000F288FA9758EBD0D96BDA66E825591E15
:1005C0003F746CA41E7E38A82F137AEF6E1ABA837C
:1005D000E38ED4A5DCD68A1DEBB3D61B8DB1E8E340
:1005E000B85B8510F324ABB94C7CBA4FD513996C2A
:1005F0006B56DA4AD673FA730DAD92189F005249C2
:10060000915F9F38ED5932E5B4E9AD75F3B19BCDFB
:10061000A0B5D0D5B5E05328646AD8E213D5D44E3E
:1006200057AB316C201EDAB15B5EBB8031EF66FEEA
:100630005F3FD355FBAB5DC587FEA9515DB5A57482
:10064000495C54494F2D241324550A53CB88379DB8
:10065000EAF9724F51EC35638AF805E71C617FCDEA
:1006600027747818809CD0ACB68B8D15D2F35C8A39
:10067000CF4F2D2523C12702D1E227E2E3AFB8CE29
:100680008F370A630BBF9CF3529DAD6B6F1B0E54EB
:10069000B64FE6BDC50572D2DD02C4B4D4B49535FB
:1006A000708F394E4BAE278F8FB75C6B2799309880
:1006B0006F1516C8D5C65B2719A61DAADF5353515F
:1006C000513B2B2CF1969912A3D40470852ED1FBAB
:1006D000F11CB4AEEA5401F1C9A1CC5825579AD205
:1006E000765F0CAE1513ED43150CDCE9AB20AFA71C
:1006F000C465E39D5C1568FCC5E9823AA93F3AAB45
:10070000CB745565419CB0A9A1B698875087DDC5CB
:100710003D77F5F6CBF86BF0DEAF77DD248A4F112D
:100720006E704A961B64F856352FD52AA545EE28DB
:10073000B3F9FDF00697D85BC9A85D242B931AE3A3
:100740007923C66ACF6360910491F1BF8E2B88171D
:10075000AACAEB8DC2BAE5709249EB6AE66A89656E
:100760009BABC924A4977623DD89C93ADAF6C12167
:100770008D631C220000AB121C904F6A60F851E19F
:1007800046E0DFB7DA2B75BE95A38DDB324D20C274
:10079000247900E94EAFABC56CAC11FDDE07DEA0DD
:1007A000BCBB8E2023CFBEBB5BE18782FB57C1CD94
:1007B000AD4C6D069924488CB70AE211E79E4C6453
:1007C00028271AD7B25BDDEAF39B8BC2DB49F6AD73
:1007D0002F964F6179251F6A40F8AFBAA7B6C29726
:1007E000FBA565CA8E34B82B435F1C4668218A5826
:1007F000CF9B039A603A0F7C91863D0EADB65611A1
:10080000C6A031E71D88AAB5C5C4D23BAC6783C07A
:10081000ACF976DD8D5ACF5494344B5932453C6B4C
:10082000413CF4D157C91162B2B4808293B4670AD3
:10083000FC882C30C34D3D05000F14B586F90237F6
:100840000D8E41A82FB8AAAE0B0CEB34AD38A99988
:100850002335A4A644B1890DB678C7552CCB956134
:10086000D32792EB168B8E16A60A71B4918AFBB52C
:10087000EE2998AD4D2BB09D7CAADA6964C87496B8
:10088000394C8B04F9EAC850BC4E74B2E2C83F261A
:10089000884023C73C9AB0ABB6F9B5553252DF2534
:1008A0008699E576861493D31A139541F651A5E6F9
:1008B000D17EFF00F1537EA40F9A4CEDFB553D46CF
:1008C000DCBCD257A54C5455B4AD048242BCE4679D
:1008D000233C97DB38C051DB58EA972F06A16D3CCB
:1008E0000BFCE47CAD5DED485463F0314ADDCD791D
:1008F0007E420A62905BA168E1A6F2DB10A140553E
:10090000564503A019E2DAB3E996CC764F2826764D
:100910005DCCDF7A8D53321901CD2EA5530A2C51AF
:100920005391243234D022F40C92AF196127270C52
:1009300038E57E7561404E73448CB139E2ABA3C992
:10094000A98CC065F38CB0CD8C95329CF1667E7E0F
:10095000ECAD9E9A201CA127C54DB7D841352CC4BB
:10096000169D84190521050E325A290304038118A6
:100970002BFD44E86DDC826A204E69A7E17EC81B2E
:10098000BB737D3CC5E3B45BC7D556C84E59A3497C
:1009900078AC249EDE639EBF6EBA43AE6A06CED8A4
:1009A00085237C99541F73E687BB9FF4F06F53C96E
:1009B000A7C6E21F4BE6D320786E34F194A72E022F
:1009C00023B2219040E07669236C03DB2BD3557B67
:1009D00014DE77C8C493DE901B89257DEE72BF14A8
:1009E000AEAEA791A7778790F3CD34949C87E4AF00
:1009F000A58448D1383EF32375D5B200AB1A81D80F
:100A00005468E76FBD79563BBEE954F0D3AFD608C2
:100A10003CB2A3CC46890BE4F19504A80E3A7625A6
:100A2000746B00D0EE5C66B279731EE4AB7AA98574
:100A3000435D2234421A4804269A4C2E427F6B634F
:100A4000E4F40341CD022C48E872C4E081E2A488BA
:100A5000EC48A40E724F22BC6C4C686B50B170C154
:100A6000CBE547309E5C803330F7C918034A6FA04E
:100A70005714E4480A67779F35A2F6CD5D0EE2B1C0
:100A8000576DDBD52C6FB7AB624A799F92C8C8F817
:100A90001878B070AEA7E3A803546BD81EC6EE3B1F
:100AA000DB76DB2C67712BE47C1A636FCE0D6391D0
:100AB000B3EF73EF0BB6D48A99636B7D5C91D45717
:100AC0004C4F94A89D9C0FF72F5035B2D6FAD61DE7
:100AD0003ADAFA49B2648C308C7C9A22599625CF46
:100AE0009A6DDBA2DB1B468BC9A0A45ABBD10616AC
:100AF000AAADC06764EA63507A20607F2E90C93D3A
:100B0000DDF49DB6DBE721452695E5B86C33613E03
:100B10002812ED7BA9B8C91F94591D8B241CCE3215
:100B200053FF0042407A1E9D307AE995BDA843925A
:100B3000B9A99228E30082334308F29983A062396D
:100B4000983CB3E965C9EB4EF9F7233E5BE9A08A0F
:100B500030B838E6BD79170483CD125B6E15B4CD7D
:100B600003C4EECAA89DC9195561C801F0EA318FC6
:100B700091A124B68B96D8287770CA549A73D8F767
:100B800044173B74BB6B71D0C170B2549785E1A917
:100B90001956F31B99704F51C3D9F39D21BB81EDB9
:100BA000A65B9B47314AA460A545033C720DADC5C9
:100BB000668F16FC214DA49FEA5DB133D5ED0A89FD
:100BC00078FABACB42EFDA394FBA9ECADABA685D20
:100BD00042350636574025F463FF00E41F3567B6FB
:100BE000B82E8039E4714866CA8EA3A1D5A0024907
:100BF000FB5179C537FC1AF03F7A78D7B923B26D2B
:100C00007A254A48993F885D2AF2945451B9C069BF
:100C10009FDD9BB220F531D29D5B5AB4D220F527DF
:100C20006DCEC0EC8D792C683BCBD4B646E72D8ECB
:100C30002BA9FE1E7861E14780D4554B6CB6535CFE
:100C400077DC10B53497EB93C52C82B255C46B1486
:100C50006797D1E4E78F4C9F9D6ACD4B56D4B586FC
:100C6000632CC63B40491147C647DCD5467D5659E3
:100C70005DF737B4544DD3E299AFBBDD4D2EE1E1C2
:100C80001D35BE2A5A78597A4950B94F3085382ACD
:100C9000FDD00F9EBA0534C4748C18B3F735E2DD6D
:100CA000B103BE294F59BCE5666BA44F20924AC5DB
:100CB000ABA2A55196489202B8F81D7B11F9B53F39
:100CC000E88002308BE9AFDAA5C17390D5F769DE11
:100CD000B78B0CF608E1AB6A6969ABE5BAD5B239F6
:100CE0002FE767898C76C9248E241C6739D452E992
:100CF000F6F223AFA7C32ED359A6F8CFA8AC69DB71
:100D00001F8B963F1428BFD39E27D82DDBB2C3027A
:100D1000822AABE31FC4E4A8605DCD1D6460489ED9
:100D200050E8389E27493F417DA6B24DA7DECB1340
:100D300063940729F820D301A83E145C0041A2FD6A
:100D4000A93D4783B6F4ADDBB5D3DFBC1C91E19A76
:100D5000A686B0892EFB6DE61C819557F3D3E4FE81
:100D600070063DC6B117A350778AED7D2BDF0E3F8D
:100D70006BD453286065858328E4E29953EC5DA326
:100D8000BF76D5C23DB6691ADF7995DEA9E2EA5988
:100D90002A58493B3E3F348D8E9A32233248AF2B3E
:100DA0001DF1F03C6450CA6399705704D2A774785F
:100DB0003D2CB2562869A924AAA47B787A4C669661
:100DC0003671C6AB0C3AB055E25468DB5D4181DA4E
:100DD000C7DA1F7907C9A0E7B05C1F6E4D2FEB3C47
:100DE00024FA9A6B6D3525D27A5ACA5AE414B1B4F2
:100DF00046557F2A228D1CEFD3D19196703A13A6C7
:100E00006354F74993CB2923ED8A5BFA1705815C7C
:100E10008F18A25A1F05EAAB2F5BE2C92D5486D367
:100E20005547417286795030152AC0CD0A37728CE9
:100E3000AB83A9575247B64943FBBB62B01A631C48
:100E40003329CD3C76BF8356A9774596ED348BF494
:100E5000D46D589E4382DE60A901339EABE903AA9C
:100E60009D08FA84463919E403347D9E963D4F78F7
:100E700018A21F193C7FF09FF0DDB7278AB27A4A8B
:100E8000CDC8B4E45A6C14C57CE77ECA580FFB7118
:100E9000FC93A8B4DD36FB5898085196027990F679
:100EA000C559D6CA140A15013F35C35F14FC7BDF50
:100EB0001E31EE8ADDCFBB65592599F14F4D19657D
:100EC00082921072B040A490107FC9D6C5B2D06D86
:100ED00034E88471B12DDCB1A97F4A8064E2877661
:100EE000ED056EE0AFA6A55880566EA7D97585ECC6
:100EF000B15BA3056E6A1B974B581DF8E0575D7FE9
:100F00000F3E191A1B2527F0D13A5448A1AA674968
:100F1000114C607B2039E67DC8D53BD23753EF7C3E
:100F200015C9E0D50649A7BDB82C7F68E682BC523A
:100F3000F107705BF733DAAE1BAE8AB2D14132A251
:100F4000415B65A8A49D5DC1CA1A95E8188EC7B11A
:100F5000D3DB7B7800C221FB66A3B96322B461CEE8
:100F6000F02B3C7FACAA282B0D450D61AA89E46AC1
:100F700084022F224AA8E40C105464149B00952A82
:100F8000C072234C96DC6412BC509E938C770D5437
:100F90005470C40CD0412AAC2E6733280C94AEEFA9
:100FA00087124713F211B80D8643D08CE0EBE65C54
:100FB000E17C0AC9C6EEF8E3CF9A30A584A398A4D1
:100FC00023CF25236658D4A9484E63C83FBAFDD71E
:100FD00051BF0B8F3587A785073524C71AD43C919D
:100FE000D3A4704D2F25033E9127A59724F5E0C08B
:100FF000E41D092118E454EABBB693E288E92AA962
:101000007E969BCCFA4127949C818DF39C75D0876A
:10101000193C578631F2296778A6A3B3EDF8A921C8
:101020009258AAEA0736A89417C3A7A54331EC390A
:10103000763AAC07375A8B3820C6A791579462B0DE
:10104000FBB001F8ACD5B9E2984935454D3C4B5061
:10105000FD5FC86C24BD30AC11B1FF00B94EB60EB7
:101060009EEAA8B1C64FA78C80DE0D7D0B02DB1374
:10107000B5074714409EE22E5E62B22323C6C0F637
:101080006E27271DC74D372C42D167DBCE455AD27C
:10109000D34CCEB21C9746122104E54E7B02483851
:1010A0002B8D0F2C9B077AC4BFB793C548111A42EA
:1010B0008C5559A3797D3F63060019FE9E44E35089
:1010C0000943138E062BD183C835B1FC12B135AB61
:1010D000C3CA9BFD453B4A6EB5A698804333535126
:1010E0002795C007E84732C71D33AD79D4978B2EBB
:1010F000AF0401FD912640FCD2ED4F9403FA6AAF94
:10110000708575682192478D15825355060C913173
:10111000C851CC0324647B67929EDA2AD482A33C14
:101120001A4C158720714B3A968849519F3B8C8EFB
:10113000A4995B9E658D711CA1C6312C43A36704E5
:10114000AE9FC4E7677AF9CB7FCF27FF00D543A8CE
:10115000114D2025B0CB014E31818668DB9AB01D40
:10116000CA807A7639D1E8C76E3C50CC760DBCD7B0
:10117000ED153D65654B9CC32343C4A04CB872F983
:10118000E3212DD3208EDAF9BD8339E5B8A93D548A
:101190004DA39C54C8D0C04D38897838E2DCBB1CC4
:1011A0001CFF008D0930420E4F347C12EFC6E3DA8B
:1011B00098FB4E8AE723C3F4A2012C532A969B8303
:1011C000490A7BB471A741F627557D5208CA49C127
:1011D000E453F82E012A33C558789146B6D8282F03
:1011E00090AF93515EB994AC5CDA7960F4750B9E64
:1011F000459319D24D1A59AE6592D24F74719C28FD
:10120000638C0A26EE2CA070693957435570592E0D
:1012100018F264214CB032162CAA72AFE5B0CFA7F9
:10122000E7DB57285FD161130A5DB82704FF00C5CB
:101230000B565390668E6319691B93A91E8665EC45
:10124000C075C69C4393FB464540CE086C357AD3A7
:10125000C4C6442E1865046ECD82CC17AA3648EA5F
:1012600054FCF71A2440FC922827B8CA900F356E18
:1012700069114AB2F451D42FBE390765FD091AC568
:10128000A1620E6A3499FCD7C46668428E67002A50
:10129000FC91D064E7EC06809E30720818A322907F
:1012A000641A766CEA5A1BE5BE6DBD72A6FA8A0B0B
:1012B0009235355C6464796E30A147CA13CB3ECD5C
:1012C000AABDD97B39C5EC5C4F110CADF38A69041A
:1012D000F86EF59A76E7E1D377EEFF0019AABC26FF
:1012E000B3C0CCF4B56DF5570603CA82DC0E454B8E
:1012F0009EDEB5238AFBB74D5FE5EA6B4B6D161D8D
:1013000056471BE550153CB487FA69C9987A7C1F8B
:1013100077CD75BFFD3DB47C24F0F20D91B45993A7
:101320006F524305C2634CA3F8B2D523665A9AC3E1
:101330001105D80C90476031AD68B3DCEA77725E76
:10134000DE366673ED51FB557E3154CD4E79249BCC
:101350000ADC66B37EE9DC53D65C16B67ACA69EF5E
:10136000511559AE14A92C4B73A6C2352D4B871DB0
:1013700041CE39A9F43E09D3B8E0E3031E991FB763
:101380001E69414C13B8D29E69A335293B4BE6CC6C
:10139000274AD8CBA8502555681D3F7209FF001A6F
:1013A0003369DAAB80AA078A955DB0178DB43B5DCF
:1013B0005CC7E924851BCA4588A9207A0281877207
:1013C000D81C571E90064EA3F4036EC1A636D22F2A
:1013D00062686DEEDE64D1C2C8F22C4CBCD0390F0D
:1013E00027119405DFB4639638F76393A8C5B0510D
:1013F0008E299302136A8F67CD125B7724D0A48263
:101400003A958FCD7F2E4AB2A578715F4C7122FB41
:101410000CE1507527BE829AD773ABF91E076A8517
:10142000E305B9395F14EAF0F37E1B2D7C06358A9B
:10143000184C4D4EB4954EB24D2A4EC226F3A2ED35
:101440009994E0F3270355AD56C815DCB1E241EE9F
:10145000057E6BC41B1C649FC0ED573BCAF178F03E
:101460005770D25EB62DC278B65DF10D65B54B19D9
:10147000228255204D45286E84C47F29F75D4BA4F8
:101480004ABA940F14A737708DA7E4D1535A960225
:10149000643DF938A3AB07E3261A9E10EEFDB29324
:1014A0007F2B819A81C02C474CB249A2E5D29D4640
:1014B00057B9ACD6294A0C007F347547F8A2F069B9
:1014C000A232D6C37482A5D30D00A50EA54F7F50BE
:1014D0006D0CFA75D820A0E318ACD209B92CAB5426
:1014E000976FC5D787F4197B5DAAE33B9460995445
:1014F00084711DB3C89206BD8F48B820283819AC36
:1015000076C9BB010567BDF3F8CBDE52DBEB5ECAE3
:1015100094D60B6283C5E0FE6D5487D802DD013F8F
:101520002069F69DD329712A46F97C9CB0F15F7A37
:1015300052BC88AA31F35CD6DCDB9AF1BBAFB73D75
:10154000C77CAD96AAE55B319A69A672EE73D002AC
:101550004FC6B6B5A5AC3650456F0205441E053ED4
:101560008A1F4E300F2D8E6BD2D6AD2B28E195C839
:101570001D4671A1AEB80E73DB9A89F8073DCD6B9D
:10158000EF06B6E89AE96C8CC54F2CECC0F0998850
:1015900053FEC7F61F63AA3DF319DD8E49C5533AC2
:1015A00086E4AA18F2403C5752EE7BB6D9B1F691C8
:1015B000A15A7929665A44C452C2CD0CCAE0876840
:1015C0004530632C83B10A41D036C18B7045248DE0
:1015D00084119F4C8C9519CD73B6F9BA26B9D75C96
:1015E00021F3AE14EB3481A9F9C5554F3D2AA372FE
:1015F0005E324AD2A60FB2F41ED9D58A34D815B7B6
:101600000CFDA86651B9641866F23C52CA69A7C4B9
:10161000BC1D8D1B487CC8AA40755909FDA48B913F
:10162000EA33903472123218F8A99421524AE5BE76
:101630007396A23B754B52C8E8D0B09214E3032BCB
:1016400093247C8638CD1925668F1D030EFAF1CAC6
:10165000019A899477C1FC1A2A4BB2B429170E0457
:101660002157EB9C1FB763FA7F83A11B935F142C58
:101670007B715FB1CCD51242CD2862AE7BF6C93FFB
:1016800023E4685907D8E2B30B81D8D4E357500953
:101690000249700E3A1D067393586D5A17BFEE78C3
:1016A000B775B292F943C261335441F4E2511CF16F
:1016B000C2921E2A19BA124771A416F626C2F2580F
:1016C00064EFED7E7EF5799A30B1A027148DBBD200
:1016D000498A8069E7425D6510CCA1D30DD0AC8A00
:1016E000A0823EFAB85ACDB48DA78C77A1236C1195
:1016F00083438F4022E24205EA51E2E8CCB8F90781
:101700000C07C6992CE5BF152FABCB063C54B11284
:101710005308A400820FBF71EC71A8DDB79C135F62
:101720004799015CF15064AC85EA4D364954EA8D25
:10173000EE4118C6B3F44A231229B456CE1738E244
:10174000BA1BE1D542C3E066C996190F326BE1635B
:10175000D1034A6A5895567041D6A0D4C63A92F43D
:10176000B760A9B6976A51E57029777D404949A2CB
:101770000A3937A239F81049EA502F46FF0003070B
:10178000DB4F607EDB7E2917A6FC82D4BBADA37144
:101790002FF3A377E7E96330E5CC2F6F52824E9C9D
:1017A000DBCBB477AC197F6E286ABA93E9E4A29DCB
:1017B00054858DB0EB82AEA4F63900751F38D398EE
:1017C0005BD443CF6A854191880BC8EE3CD4AA1AFA
:1017D0009FE1D52DFCC1E4CA3985031D7A92D83D1D
:1017E00089CE8E92DD5E146CD12BA7C92C7BC46C84
:1017F000707C0A2EA7A45A8A732C48CCFE5991FA01
:10180000720A8BEE3D80F7D57AE6FAD6D9CAB4B122
:1018100083BB0373004D338345BDC6E5B690A8EE88
:10182000429A28DB14D2D3CEB188CA29C797824303
:101830001E630DCD87563FB6975FBA3C45838E45F4
:101840004B144D1C9820823C1E29D3E225892A7610
:101850000D92AD0C3F56B5D2C240C040924409042F
:10186000F42A3A7E75D50ECEF61B6D4662DBB39E2A
:1018700071577D2BA4B5BEA3F4A2B1B3724F6720FC
:10188000EDC7C9359B5ACE9E40A45B998A143F9AF6
:101890009914A0CF75669739D581B5D7DF94B7DD98
:1018A000F193CD6CDB3FA14C631FAEBFD9718C901F
:1018B000A32050BCFB6A943BFD3DC609B23D0AEA39
:1018C00063EA7DF90E9D34E6D7A887B44F0151E451
:1018D0008A47AAFD15D521121B1BE49703852B828D
:1018E000686EA68EB697F972C2CAC08500FA81FDED
:1018F000356BB3BD82E4030CD9C804835A5F55E944
:10190000ED4345B96B6D42068DC12338214FF9AFC8
:101910002ACAAAAA5A2798C658A02405EB9C69ACE3
:101920007B642016A0ACEDD649C46E4053C7351277
:10193000CD74FE294E1A4878B807D27E73DF3A5F1D
:101940007B1A248704628EBDB35B561B1B2B4DBDD7
:101950008D575304FCA9DF8C9165D8A7570A9D4980
:101960005CF6FD7BEAAFA804752A402DE01AC2356B
:101970006382A095F915D19F0EA8A876FECD977B1E
:10198000C5494F16E4BFD1D3CD5B5358FC1EA28E80
:1019900090FF00D3444F509C305975ADDEE9EE2ED8
:1019A0007F492BB3DAC0E4C69E158F734CA7CC30A9
:1019B0007B49E4522F79EE2371AB1766A09E19562E
:1019C000A7CD8EF5B7EB054428C41F4CBF4E03FED0
:1019D000CEA7571B25088A558B71DC8C556E552078
:1019E000B36324D24AF73FFD344B1C8893299016E9
:1019F0008E128B89947360ABE90927774C0E2DEA20
:101A0000034EADE42A70F401524FBA97AD3AC06666
:101A1000A7AC660490D193FD209E6064F5234C38FA
:101A200071C57C5738C57D19296A0C3E6AC460456A
:101A300012ACB927032449919C160A401F1ACCC442
:101A4000C31C77A2A2439E0F34182E76B92A8D3D6F
:101A500021461099166257AAF9A724F23DCEB397F2
:101A60004D90C3EAEEC353CF4648620E5C3467FA2A
:101A70006BD1E2860A813D2B112210B0B050CC8789
:101A8000B9F2C3FA549FEE3D74AB7B2831B0AF93EB
:101A90006BAFFF00D55FDBEFFF00495321FE214B09
:101AA0001F99C0BC7490AE4B2F6334880B673DF117
:101AB000A0AE22674C04C9AC845838A7A6D4AEB6F1
:101AC000EFFDA377F0F6A2964945486ABB7DCA3A76
:101AD000731C14F728462272643C8AE3D2DEE43693
:101AE000AA5748DA5EA30DFA48150102545F2B4746
:101AF000C2004D85FF0002B1BD68B85BAAEAE9EB00
:101B0000209209A9666A79E361C192446C3291ED31
:101B1000DB5B1A058A78A2923C323AEE07F347C49F
:101B20008A78AAB6A99D9BCCC120FDFA649CFA7361
:101B3000A9BD35C01B7FF5533A0038154779DC3114
:101B4000DBC34B35461CA81E5290CE4FBE3E34CA56
:101B5000D34C7B8C0D984CF73C54023DC70179A5C2
:101B600065DEFB577A9079CE56993FED440F41F7E9
:101B70003F27569B5B386CD711A8DDE4D129104272
:101B8000095E6AAD412C02FBEA7F1CD66D4C4DA567
:101B900045F5155029E44721D86474FD355FD566B5
:101BA000F4E36C1E0D2F9DB0B8F35B5BC1D8A9E5C3
:101BB000BDC3248EE44273911AC8B0A8C679A3E3CA
:101BC0002B8EFAA73B3A42CC0E726A85AE2FAB360B
:101BD000319A79F8B7BD3CAB75259FEB6D268CF239
:101BE000963A6ACA9A8B5CE18FA4BC4F0F4743DBDD
:101BF00081EDAC2C7DEDB82E07914BD630C3254E30
:101C0000DC0AC935F71BACB555905CA232554CC007
:101C1000668CB562223000032AB2BA8F7208D5856D
:101C2000362A8DA326BED8A416477C0EE08AA826A5
:101C3000A639B90A4A547542934B2F294345D8E532
:101C4000CE3FC368856CB64D668A1802A4E7C71EEE
:101C50006ACE8243CD02C52470843C111A390A7BB6
:101C6000864033C47C8CE8791C02726B264D9EE75B
:101C7000393579F58D2043205CA8C0317A40F83899
:101C80003D8EB10E2BC5F7D4F8EBC52A249276ED24
:101C900083D700FB8D4AB10928B8AD9A660B9E4DDB
:101CA0007B1DCF6E048154B8CFB839D4474E6C9E9B
:101CB0003FF74D3F814DFF00C7451E26F86B49E1B8
:101CC000DEF9F11360515324D634A88B746DDCB661
:101CD000545B6E8BF910F73E4B82A75569EE0CE30F
:101CE0004ED40772A61940F257B134D6425E14C8DA
:101CF000ACF7574D2F2F2DA92A5A3854A2C8D030EF
:101D0000F2C67A12242C189F81A730B0DA195873C2
:101D1000CD2E31AA9C86CD408A9BCB2E131C71827E
:101D2000ADC5881FEEE03A7E874609B8C0EF58F788
:101D3000E0F06AA6BE1568D8A0C000E57E31ACD23E
:101D40005F70CD1D6AA7B91C79A0DFE1F29AA13DB1
:101D50003B90C0FF009D32374AB1E18771C559629F
:101D60009B30FA613248E2BA1FF878B935C7C2FB36
:101D7000E6DAAA631BDBABBEA2032C8F1A4B4F58CB
:101D80003AAC657182AEA7246B4CF56CB059EB117F
:101D90005D09976C802BF3D8A5151F48EBFAC27A22
:101DA000B61A6DCC89E36C66BCEF1689659DA2A757
:101DB000FA9919D9BCA43234CFD0F6184042FDF9B3
:101DC000674CF4C98DFE3F4DEF6DBBB09CF1554D96
:101DD0005F41D5345663AA69F3C0A0E374A8546682
:101DE000A95B606F2AC880A0DA37E995FB18286ADA
:101DF0009C9CFF00574401BED81AB3DAE9B7AEC7BE
:101E00003038C7DAABF2C65467C63343575F0AF7B8
:101E1000FD1AC12DE36A5E2929EA24FA686A2E7444
:101E2000B2D346F2639840F300338F6D36BA8A6DB1
:101E30001EC26BEB8B77F4501DCD8E0628EE9FD221
:101E4000EEF5BD560D2B4F804D7B3636A67BE68FCB
:101E5000B6AF82DB62DAAB71DD35A2BEB5EDEC7EEA
:101E60008D243E4C13672A032FE73F235A43A83E95
:101E7000A36AB7B235B69286281582FA87BB2FDAE5
:101E8000BB5FA0FE87C50DB4526BB687D62B928779
:101E9000B035A568EF16DB7D1B505AA8285298D2A2
:101EA000D352AAF951E0A7E50A7A75183EFAD45739
:101EB000116A377702E2E6F27330667055CD6FAB88
:101EC0005FA7FD3D6F6E40D3A0FDBB08DB49CF107F
:101ED000EF3B12CD3FD7EDFA16FF0052CB249F5BAC
:101EE00015310946AA9D159B20E18E3240D6CAE9DC
:101EF0002BBEA27825B6BF955ACC81E93BFF00DC0A
:101F0000FF0015A93A93E8DF4DDC6B0B7A881201CC
:101F1000EE748F80C7E2B3DDFF0079DEAFF309EE28
:101F2000356D2F00123F309586255180AA3573B745
:101F3000D3A043BB04B9E4F924D59ACAD2D74A81C5
:101F40006D2C2D960802EDF68C1A1635724F961EE2
:101F500065460FE63E88574C16054EC1578FC9A9F6
:101F60008B11FD3FFE55F06A5D7D325C29E21ED18A
:101F7000D32991BFC8CEBD1129FD9031F92E40154E
:101F80000BAEEEF22D7A433C1286A795A79216056A
:101F9000819D3D2ADDF90EB91A26D9E5B69A365249
:101FA000AA320614D6B8EBAE9DD3F5BD16F92E6352
:101FB000DAF1A191662B8C11F7A139EE23CF10FD38
:101FC000079B4CF9C32F4C67A0273EDABF232B4257
:101FD0001F7E0E326B8D8E9C03BAACFEE46C061F26
:101FE0006A27DB3B56B6E952F242822B623812D5A1
:101FF00032FA147C2FCB1F8D5535CD7EDACA3319BA
:1020000070D39FD801C9AD99D0FF004EB54EB0B97D
:102010008B30BA59A9DB24CE3DB8FB5316E336DD2D
:10202000B351AD0535B216207595C729D89EE59BED
:10203000542865D535098CF24E5579C0AE8BD47EC7
:102040009CF4DE91A3C7611D92BDC2AE5E4C7B8B3A
:102050005742F770A7B06CFDBD44B3CB44B0DAE88B
:10206000E28DA385653C4C0B80C38B04C938CE0E32
:102070009369B293713173993D435CB7D41A67A1E8
:10208000773C31711AB1016B235FD7EA6B64AA30D8
:10209000D40750AC8ECB24350001C4F1910A9E24A4
:1020A000FE552808D6C0B5999D141C0C551EE2DDBE
:1020B000E30734B1BE2D6128DFCC5121F947042755
:1020C000CAA484AFEA4E4E9B42CACE7278C500F1D4
:1020D000AF61DE816E15F49154D0C55854C8CDC09F
:1020E000160725324E33EC34F2D61771988715E077
:1020F000B56901D8A49A91516F8AA1A8E5B3101DC2
:10210000D59E5661C844AC02F3C7B9234527B491A4
:1021100038E476A8137C0E43823F350AAB6A4D4DF6
:1021200050AF6FA68E7F30E2365656940EE79F2E44
:102130009EFEFD8F4D666ED1A3DACD8A952EDC937F
:102140001B37B7C54391E38E50958A5248CF074954
:102150001389E7DB8B6720671D3D8E8196059465AB
:102160004511148C0A80735526AD23731415124043
:10217000E7A985B2A19BE08202E3E0E97CB038FDEB
:10218000C3229BC6F9EFDE8C2D176B951CF4954A84
:10219000F52D32E1D1A048A611A4790AB10E801321
:1021A000F3A4977691CEAF1945008C1DDE68852982
:1021B00090680BF143FC4AD9B9AC7B8682568E8B72
:1021C000715AE2AE9A170AC56BA2FE55473C7F537F
:1021D0007427569E8436D75A7DC5ACA9FCDB598A34
:1021E000F7FE93DA9A5B32B565B9AFF79A9C2BD6B6
:1021F000B04ED88C05E83E38EAFAB656A98C42288B
:10220000ADAB55D2729958E497FCD93DF532E14F08
:1022100000015F00076AF848C9C023D5EDAF5DBC77
:10222000D7A7E6A6C10B73C0EBD750BB0DBC560DAC
:10223000DA9C3B0A931510931F220F203B1E9AA78E
:102240006B929C119A55719E6B5A78575829AF2101
:102250009A256620A46B282407F605C0383D7B9E8E
:102260009AAECBBBF4EA73C7CD53AFC1F589FBE29D
:102270008CFC4D92AE7AEA315162B7C70522B24169
:10228000513D52CF32BBFA9888DC950BF3939206FE
:10229000A6D35828CEF1934BE542BC6EE4F81599CD
:1022A000EEE5FEA3E8E96E3619247932C15DC4AECD
:1022B0009DF3E9C741FDBA7D13F058A1CF8359457D
:1022C0001AE0B3C728F83505183192487C89E8CF61
:1022D00043E4C2831ED8E73B1207C6BD6627391503
:1022E0002AC71143B83A93DAAFA8E3774188A4C666
:1022F0003212949641FA96014E3D80D0F238AC0AE3
:10230000AAE431047CB5105221FCF22B86FED731B1
:10231000961F05BCBC91A1CC9838CF1519217F61BF
:10232000CD4D30C1510B2CCA724F400E003A985C13
:1023300095EDDEA7B796486449777F8AA8FE029E8E
:10234000D10FF8D466FA5A79FC6EE7FBC56AEFC77D
:1023500085441B62F5E04F8994F1968AB286E56860
:10236000B9A0EA2682195641D5719C79A74BF43B56
:1023700064D42CEEEC71EE640C87E18536821F5636
:1023800002BFD58E2B1CDE29A92A00B8523C151499
:1023900093719A926CBE2543D4305CB13FA63A68E3
:1023A0007B7692D88B79B22442558377E38A5EF6A6
:1023B000E62628D4306199481228F37A714E18C65F
:1023C0004FE623FF00034D7D5520735E187915E11C
:1023D000534C4AB0419C8F4FC63B7B63DFB6BC1366
:1023E000C6B962FC2D35B0B596595218D0976EC05B
:1023F0000AD25E117806B5E69F70EF0A564A4FFB87
:1024000094D6C75E2F367B3CFF00DA9F0BEFAD4BB7
:10241000D6DF51459ABE9DA5480DC1CABDC29CECF0
:10242000FB0AEADFA5FF00475276835AEA484B428F
:102430004078AD9C609FBB0AD7636E51430C70D34C
:10244000C51C14EA02AA46A11507C003A01AD2327D
:10245000EB5757133CD3BB4921F935D556B6365601
:1024600031C50DBDAC71C280285400600AF6A4AA23
:10247000ADD9F7BB26EDB3A835965AE8AE0883AFC1
:102480009B1A7A668BFF007C64AEB637D2EEA83A10
:102490003754584B72F9B699BD2656E570DC551382
:1024A000EAAF465AF59746EA9A7C7021BA588CB042
:1024B0003ED1B848BCD763ACB71A4BD596D376B6E5
:1024C0005599ADF5D490D653481CFAA19D04887F48
:1024D000C1D77304899D648D404601B81E0F9AFCD4
:1024E000D3364F6AED6D3AFF00B88B723EEF91C55F
:1024F0002E7C57D874BE20ECEBEED7A91FCFAB874C
:102500003473380C60AD8FD70CCBCBDD586BDBCB85
:1025100058B51B0B9D367506099190F1C8CF9ACF1F
:1025200047D527E99D7B4FD76C576DC5B5C236148B
:10253000637AE79CD720A95428921ACA6F2EAE1945
:102540001E0A888AF58E7858C7221F8E2CA46B81AC
:10255000BAAB4A9B43D6F50D3812043336DCFF0084
:102560006D7EAC74DEB50750681A6EB10BE45CC0CA
:10257000B2E3C03E4578D72D1156558172411D34C6
:1025800092069F218BFF008A75F2B9A5BDCAC54589
:1025900054AFE81FFDAE3233F27569B4D46684AE31
:1025A0000918EED4BAE2C609C10DC9A5E5DF651662
:1025B000E4D10CB819E4C3928FB2A8D5A2CF5D03C1
:1025C000024ED48EEB4589810940172DAD714EAE78
:1025D000CCC83B7984F5FD106AC76DAC5ABF0B8A35
:1025E000ACDEE8D327218E31C0AA21435348E0CC8A
:1025F000EF120EC70231FF001A63EBA5C711207955
:1026000008E00E6ABB3EEB012493C984500127C544
:1026100017D1ECEDEF788A1976FEDCBB56DBE5428C
:102620001E7A5A67911FE54B81855C773AB568BD84
:102630001DAB6A0167FE1F2328E470540AE75FAAF6
:102640001F562C6073D3FA76A2987F64AEB863F8F5
:1026500015676EF0FA7A7AD45BEBC23196968A19D6
:1026600084B220F6599D32A87E541CE97F57DD378D
:102670004EC0201791B6A0E31E927BB68FB9150FFE
:10268000D23FA6177D5B749A8EAD6D341A42BEF4AC
:10269000370BB3D507E07C5165FAE90DBE8D608537
:1026A0005238624F2E08635E28A3E140D6AAB38653
:1026B0005BD9CCB336E727258D767DBE99A6E81683
:1026C00042D6C6DD238D061554524EA6B26AEA895B
:1026D0005E463924AFDB1ABB45024088A00AA6DC5F
:1026E000EFBB9A43276391CFC5751370DD12EDE1FF
:1026F000AF8777D86AA646B8EDAA30C687ACDCE1CA
:102700008842E809E8AA0A9E4DEDAD736A0C1A8565
:10271000F5BB1F72CEE7FC135CA7D6762F6DABDE40
:1027200026DE0B93595AF4E22ABAA4A4895638D467
:1027300086A94AB54A7E60061C1DB9961FDCEDD7F6
:102740003ABD59BEE423C62B5B5D40A58D09554DAE
:10275000E6A986A0432CE3D5FCBF3A57FE675E4B43
:10276000E8604FC16234D0101B827B5239E119CA34
:1027700052737BDA2A65B9255C7298026230872A27
:10278000C4E3A39D5BB47BE5890020134569D3AD09
:10279000A9632461B22BDB6DD4D4DAD2585E569291
:1027A000294E55C7A8A30E87967B8D33BA956E0622
:1027B000E2003F6A51A9209E5DF1F1F6A2EB756837
:1027C000A694BB3B9A790E7287284F6C7B11A55754
:1027D00008AE30BC52A2A54D48DCF73A0ACA09FF40
:1027E00000E8E9A69E47F24FD5058E9A1841E5E626
:1027F0003B8C65C76545CF4D0F02C91F0CD91445E9
:10280000BB36EF777A5F4365B154502D1D2D75555A
:1028100053B062F560F954B1AAFC19FA6067A0D60A
:1028200052CC436383F6A6893BC5280C47D81AB21D
:10283000B4DBA7A0A68123AA9EAE39C29816289918
:1028400021C0E9894AF50B9EE54E95DD7A72303B51
:1028500070431CD4E662EC48450477E7156FF8A195
:10286000B155A7847E175CAB3C833A5C6BE0414F6B
:10287000118D16178D5C264F56231DF46745BC300D
:102880006A5A8C31FF005A8727EF9A65A74CCD26EC
:1028900008C0AC048B8600E46B6731A79525002740
:1028A0001EDD3A0D464F9AFABF519126284F5F8D93
:1028B0007ACAC57358B038E2AE29A94CAE2441D8C3
:1028C000F519FF00C0D0324BB0156A88B103EF4E46
:1028D0005D8C85278A36CAE08FB9193F6CEA9BADBB
:1028E0003655CE68198641AD1FB2E1960BC291CF25
:1028F0009071EA8D5939027A0217A30F91A4C92861
:102900006B707FB7B8AAB5F20F578A33F112C74977
:102910004CD0B469454F2F23279D0AC2C93BB751FC
:1029200019866932EEA57218EB2B198862428C1E4B
:10293000C3E28468B8F39F04567DBBC14F4B3CF3A0
:10294000362DD54CEA4A431D32CACC7A060200F82D
:10295000CE9F4733F8238F15002E0364BE078351A3
:102960007C90920223AC926738713CFE5E587F5E89
:10297000187B7B635934CDE4715F2BE73915670C05
:1029800028C39809217F512BCD9860FF005B4871C7
:10299000A05DC9391583907BD10D1AB1870072C132
:1029A000C904E719F8F927E75097C79A18AE1BDA58
:1029B0006ADA187CD2571E9C85CE873211CE79AC4C
:1029C0008C9B5706ADFC988742483F19EDA80CE652
:1029D000A3F55A9F3FFC48EA204B5F80FB550B3C18
:1029E000D15AAEB729D2421982D4CA90A9247B9E6B
:1029F0000747F4E6D8CC9276E179AD8D6808556C3E
:102A00005739762BEEEB7CDFC2E9685AE1B7A52493
:102A100088E57E0698B1EAD19F7FB8D37D60E977DB
:102A200050BCF23FA5788382A33BFF00353DC2C274
:102A3000F8271BA9CC2C0A5C31391EA66700A60317
:102A40006075F71DB1AA1FF1375F6ECF778350C74E
:102A50006BEB32A85DD9206056A2F097C1AB31A3D1
:102A6000B6EE6BA43F5358CC66822931E52712702D
:102A7000CE3FA9B5A8FAC7AFAF1269F4DB4711AED4
:102A800036C8EBDFEE0575FF00D26FA5DA55AD8DC8
:102A9000AEBFAA4024BD704A45272A983C1AD12FC0
:102AA0001AD3336B547AAF37B893DF3CF24D74AC22
:102AB0002C1D461940036E31803EC2807726F9B73F
:102AC0005B65344B329A91F9B0399CFC003564D285
:102AD000BA7AEAED45C15250F6F1536E03238C8A5F
:102AE0000FA9DFD0E29A39E5963150424324F095A0
:102AF000A777FEC12AE42B7D8EACD074B5CC0CD365
:102B0000247831E1CA86F78039C807C563FC4218CA
:102B10004FA7EC911BDA4A9DC0678E715D30FC2097
:102B2000788F4BB9BC399F684F28FE31B4AADA8838
:102B3000A31EA6DF524CB4CFFA0EA9AECFE84D517A
:102B4000B58E99B09CB6E9A1411383DC15E39AFCDC
:102B5000E4FAC3A18E9CEBBD4E248CA5ADE13730C9
:102B60003786DFDEB56553A3272CF5EDFBEAE511CB
:102B70006F5368AD4F76C8D13FF72F635C67F1594B
:102B8000E9A93C51F11E1A0E2B4DFEA3AB6554E88A
:102B9000B9938BB81FFB89D724FD66B4813AD271F3
:102BA00010C6F891DBF2460D7E85FD00B99EE3E983
:102BB0009692667276334633DF00D2BEA6AF2F817F
:102BC000EFD0EB55C308ADC45CE4E0E45514F280EB
:102BD000CD83DFB699220C0AC59D85421375395EF7
:102BE000BA98A76C1AC04ADDF02BD0414B383E6C26
:102BF00060FDFDF5E89268DD4A31FC0AF9DA390139
:102C0000129006302B44FE177F0E566F166F974DAD
:102C1000E5B9E943EC9B255AD1D25237E4B95C506F
:102C2000077E7F30C1EE3DDB5D31F4AFA602D9AE49
:102C3000B9AAAB3330DD0A115C43FEA2FEA41B0926
:102C4000DBA6342987EA0E4CEE0F65A6AFE2BAAEDA
:102C5000CFB7DED3E176D280D1F9D02D75DDE8DCB7
:102C6000C2B0D0962B152AAC640066604B7FB46A64
:102C7000DBF55BAF9FA6741FE1D66025EDDAE1427C
:102C80000C155AD75FE9ABE972F5C751DC7536B957
:102C90001ACDA5D8C980586EDF2F7F35876BA8A9BC
:102CA000ADB45E4C3104001C6063B6B8FE2BBB8B28
:102CB000DB8324F217663924924F35FA47FA1B5BFF
:102CC0000B7586D63090A0C220C0000F80290FB8A7
:102CD0002B5EAAACC458955C8CF7C6AFDA6DB88A87
:102CE00010DE4D563519CC8FE9D08C6097627AFE94
:102CF0009A7471C5209225424E2BA05E1D5F63DC45
:102D00003F87EB0D1B46D39B1DCAB2D1514E848722
:102D1000911CF9F10E4BD4285724EA83A941FA5D9E
:102D200075E4FE999039AE71FA956A8BAAB4ABC07E
:102D30006149CDC06965AF64AEAF9D446A648ACF16
:102D4000308E28A9D00E924EAA073E87A29F51F737
:102D5000D592CA5C003B035A72ED4AAB80060F9ACB
:102D60001392B7CFE70474B55E770F553C552F1516
:102D7000B610B8513E7F29CFF4A8D3552C7C8DBE18
:102D80006ABB2C455723BD0CDC690D5CF0A215E134
:102D9000C7AF6C61320924FE639072746DBDC2C40A
:102DA000786A15B7A83C55225B7CA6CA121413D0CA
:102DB000F4E8DDB4D16F6461DE8423C9AFA6A73423
:102DC000FF0090F47239A9257813D9D4AFBEB34B64
:102DD0008673DEA06894F38AF164A8A89E3A7224F0
:102DE000595BA86400975F6640B82CBD3DB247B8F8
:102DF000D67FA815F4501F1C7FE35734F3C9571B27
:102E000052C9746AA63E96A18FE9E93CC46EE8E512
:102E1000D57967DC601D0CEEA5C92D5208FD32483E
:102E20008D41F9F228EACD6DAB32C72CC91C314275
:102E300069D112197FE95155B970861452CC7A7153
:102E4000EBF98E809E5001C1EE2BCDE99E58927C0D
:102E50009F355DF8BBCD37871E12EDD5A7789DE76E
:102E6000BBDCDFCC3D644729187E0090879120A70A
:102E7000B68CE901B6FAF663E100A73A6657DDE3DE
:102E8000C1AE6FD5D1B41D41CFFE75B4239438FBCC
:102E900053F89F7E722A04B2185179918F81EFA95D
:102EA000D577D4B824F6A813B994AC8148C7A74401
:102EB00020DB904D6606055C5AAF93D0489E6C624D
:102EC0005833D4766C7EBA12EACE29D1803B58F9B9
:102ED000A8DE20C3229E7B4EFB69AD991A8EA156B7
:102EE000A33D61278B8FDBDFF6D51758D2EEE34683
:102EF0002C094F0450524470456C3D8F1ADCA2825D
:102F0000AE182490210B37D3B317527DF0BD754E08
:102F10004768F7C6C6ABD7D10590668C3C43B6C4AC
:102F20006DF4D4C28A3A8858FD446D5D4A6648D82B
:102F30000C1E52B10107CE7A1D476B74525C061805
:102F4000CF8A18C00AEEF159A24A178FCD929CD0B1
:102F5000E0965E340AD33B1FED69738181DBAE06D8
:102F6000AC91DC82304D2F921C13C9AFDA6B544503
:102F70009E410819EA0F362E49E99763FF008CEA53
:102F8000433A807279A1995B3C55B474279715EB4D
:102F9000C3D4A1DBB1FD07FE35019B3581EC4115A2
:102FA0003E2425C0E641C33B00A3A0F73F6D432369
:102FB00083E6BC118440DE6AEA96128246E07D29EF
:102FC000EFD743B3D07273B2AF56D6ECAA7CA5EA62
:102FD00001FCC351EFFB1AF370F9AB6FC4EDF22F94
:102FE0001ABC71BD56DA984BB62C34F0EDCB4302C7
:102FF0001A2921B7655DD31D079B216234769ED2C5
:10300000456CA107EE3CD5DEEB525B45283F7D03C6
:1030100053EDBB45AA19669EA19129E3E53F92DFD6
:10302000CE5C0C33C23FACA7F5C7DF1D7464B07A29
:10303000A79F2295457D34F206F141C6F3406F14F7
:1030400014B3C8AB4A2A60150CAD9F320C8FE6FB57
:10305000743F3A4FA8E9663B5B89205CCC11B6FE11
:1030600071579E95B98BF8CE98B7407E9CDC207C3A
:10307000FC66BA21B7EB1E8E1012457B74A018CAED
:103080007F43FDB1FD246B94359B759A67F5091755
:1030900081DB7FFCD7E8C68FE8AC10A5B63F4DE9D1
:1030A0008283ED5E3B8AEE9102598ABE08FB12359F
:1030B0008E97645D876FF3561DC2350338CD613F2F
:1030C00012EB2ED71A1DD56BB5DD3E8AF72CC25AEE
:1030D000798BF069A0FEA855FF00A790D7467474BD
:1030E00056769369B73716C26B411EC718C857F991
:1030F00022A89D59FC42FF0041D4F4CD235216BAB8
:10310000A6E2C92B1C165FED0694FE147F13DB3478
:1031100037882E7774AAA9BA04821B3ACA676899BD
:103120001B91A99BBAA11EDEE7574EB0165A91B665
:103130007B5B631476FEF6B8DBB37291FB17E6A8EF
:103140007F4DAD755D023D47F8BDF89A7B8511470F
:103150006BEA1918383CB1AE93FE0C7765C6C1E333
:103160007EDEB60F31E9370DA2BED359EE035327E9
:10317000D5C32B0F708508D38FA4F7BFCFD634DC0F
:103180007F24AFAD1FE6A95FEA334949B46D0F57FD
:10319000641FA88A4D864F241F15D74DE3B9A93661
:1031A0008ED7BFEE7AE9D1696D56FA8AD7F30E0150
:1031B00030A960BFFB8F4D6E55758D2495C6234495
:1031C00066DFF8E6B91A0B392FE7B5B280E6E6E616
:1031D00065445EFF00B8D70F1EED5D759EA6E972CF
:1031E00073FC46E1512D755313DE6A8632B0FDB390
:1031F0008D713759EA875CEA0D47502720CA553F41
:10320000FA0E2BF51BA2F428BA6BA5F48D1638C262
:1032100018E08C3E3FBC8C9AF19AAE1001693D4794
:10322000AE06AB0903138038AB212BE2AA6A2AA1B0
:1032300020100F7F7D1890B8A8CB8ED5E6B54189B8
:10324000015704E0E359FA58EF5E641CD46A9FAD5D
:10325000AC7A2B359A3696F974AA86DB6F45058BC6
:103260005454B88D4E17270B9C9D597A4F43935C4D
:10327000D72CAC40CA3B82C7E00AA475DF5245D3C5
:103280005D3BA96A524A17D389B67CEE22BB97B23E
:1032900036E6D9F057C31B5D823AA8A96C1B76D6D7
:1032A000CF5B57504287641E6D4D548FEE647C9DFA
:1032B00076C5AD9C1616D0C118090C31ED3F03152B
:1032C000F92DAC6ABA9F547505DDC06926BBBC9D5B
:1032D00091131966DE7802B8FBBF3C41A9DFFBD32E
:1032E00073EF7AB1246B74AE6928E17E8D0D1443BF
:1032F000CAA6888F908013F73AE42FAA1AE2F5172E
:1033000051CC2DDB759DB8F4626FEE0BDCD7EA77FC
:10331000D12E8FFF00A13A134CB29D317F3A8B9989
:10332000F8C10CE3B1A576E0BBB181C31E4801D55D
:10333000274DB3FE62115B42EEE42A316EE39A41FF
:103340005548D34F34993F98F5D6C5854468A3EDC9
:1033500055091FD5959EA149854C0E9F2753A0CB9B
:10336000734AAFA7088DCD6A3FC2E6E2A79AB37A47
:10337000F875589E63DEA816E56C8BDDEB2DD977CA
:10338000894FB19233FF001AAFF5359C860B5BF87D
:10339000972D0BFA727FF56AE7CFA81225C48B83AD
:1033A000EFA21DC56DA9B6CF3454F510D2D1493363
:1033B0002C115422F39E424977926C316E44770768
:1033C000D2BA1EC67042803271EE3F15A5EE173993
:1033D000523CD2B6B2904B1C4D1492476F203534FC
:1033E0009E4B46B349C8217851D98BA8ED196E99E7
:1033F00039D3A8E403BD2E9620035405A7612A8380
:1034000019F29584458F5014CA538063DC0453939A
:10341000EFA2F72601A5D243B8F02AB278D9E9CCB9
:10342000AE7351E5BD4A499E9C6225D94E7A100182
:10343000206888A4C9C540D6FE2A34D4B50BD2086A
:1034400059D233CDA42871853DD81EC0630C3F7D71
:103450004F1CAA3FAEA0F430D5FB1DBA99D4A0886A
:10346000CD4BF948F5728198F22071F5294F623BF6
:103470007E9A91A71E2BD58CF75EF46745679EA0B8
:103480004291CF5CCC8AACAD5112DD29E55270007F
:10349000048EDFE7434B74B5E3210A59FB53E36223
:1034A0006C992AAE149041139AE6614E278219292D
:1034B0001A45A8EC658508F36018E8D9041D25BDF8
:1034C000BE0A9B57BF7141ADB34D293146CEC46092
:1034D0000AC83F8A9DCD4FBABC4AAAB1EDBA6593DE
:1034E0006F6D7A38F6FD1C9488169E57A725EA66FC
:1034F0008C7C3CCC7573E9B11D959AC93CAA249784
:103500002CC0F7E7B56CFD1FA1F5EBA8A3922D3AEF
:103510005DA54107C5640B8D9EE601294459B39C06
:10352000161D3572B6BEB46C033D3B7E85D7E204F2
:10353000BD99CFC50FC1B5EF571AA58129D04CE46D
:103540002A07902824F6519D331A8D9A28FE6D2B58
:10355000BBE9ED52C6379AE6D1C44A324F8AB7ADBD
:10356000F0D773DB60796E70D3D1401F024A894275
:10357000AB30EBC57FB8FD875D4B1DF5BBFB91897B
:1035800003BD576DAEE3BB9C5BC019E53C6C1431C9
:10359000FC12B412A02B007F36700EB237B01F3869
:1035A000AB543D35AA4A01F4B6FD8D7D2D96E1134D
:1035B000ACC9200EA43295255811F075E35EDB9559
:1035C0002A7041EE0F353CBD27A8A264A0AD09E0EA
:1035D0009F8B9B87616E8B78BECFF51B7A5714F556
:1035E0006D21CC91C6FD39E4770BEFAAA6B7A2698D
:1035F000D7B0C92DAAFA7778CAEDEC6ABBAA74A530
:10360000FB42CEB1E5D7DD8AE98EF1B4C5B86C14C2
:10361000D76B57AA078FCCE69924C6E320A38C82E8
:103620000F75E9AD52775BCC5245C329C7E4D52A63
:1036300030632D0CE3120E0AFC5654B8DB264AA95F
:10364000C48AEE41FE5A347E5A9C77201FCC3EFD40
:1036500034F60BA05401DEA0B88776596A3AD13807
:10366000E29C8F3F60A0FA01F6FB6A533927BD2C1C
:1036700074DB5E90D19572E1FD21B04C7D72477094
:103680003EE3DCEBD3216143E727156549439841CD
:1036900075F59CB30F64006522FD4FBEA169B6F0BD
:1036A0006A0933BB02AFA2B6FA266E270B19933D07
:1036B00049C29191FA9D62D702846650726A79A2DA
:1036C000ACC9F2E597CBFE9E83B7B6B0F5D7E2B0B2
:1036D000CC7F14116BA69A8ADF4D1C14C78CB2954F
:1036E00091CAE1B9804705CE072FB67A8D58EDDD36
:1036F0000F1F03029A5D234D3171FBE961BCF71A7C
:1037000054D7342A7302B71F36318A88DA2E893AA1
:10371000B0243B2838753D48D3185060B1ED4DECCE
:10372000E12B1FBFBE2826596572D14FC3CF8C2B0A
:10373000ABC67D1227CC67D87CA9F9D4A631CF19A6
:103740005F3F8A3D1E4870D1F704115A17C37F1995
:1037500027B4D24362BB4A64823558E1949FE91F83
:10376000951B3EEBAD43D63D0715D5C3DFD927B931
:10377000F938AEA5FA65F5515218347D624E5140C4
:103780008A6F240F06B40D76E8B4DE6DF1CD156AAC
:1037900094940CB7F52E3BEB56DBE8F776370C929A
:1037A00047D9ABA8A2D46D2F608A68240CACA39A29
:1037B000406EAB153DD6A0BB4F1119C2E467235B29
:1037C0001B49D425B3882ED34AAF74E86F48DFDA9B
:1037D000A82DFB669ACE5A7511941EA2CA02A01F8C
:1037E0007D349F54B8D402C2BBC9EC054167A559CA
:1037F000696259DA3DA396327E2BA75F829F072A22
:1038000029244F1A372D3B279B492D2ED7A66E848E
:10381000C13FA26AD917FDE0718C1F6EBADF3D056A
:10382000D2D2E8D613DE5C26DBEBA0A47F708CD767
:103830001BFD72FA976FD49A8C5A069B2EED32C1FB
:10384000FDEDFDD27CE6AA7F17DE39C57EBE4FE1D5
:1038500006DE97FF0094DAE686A772D421FF00EA1D
:103860002AD312A500FF00647D1A5F96E9A5BF5117
:103870007AA9F49D39F47B17C5EDC210EFFD8B4F8B
:103880003E817D3A1AD6A96FD5BAC44458DAB1360A
:10389000D17FF238EC6B1ED4D5A11CE0C853D707FA
:1038A000D89D72FA444B132F2F9AEE29DD49F68CDE
:1038B0006147155CF3336195BA76F8CEA709B78AEC
:1038C000101DC2A27998FD3D8EA5D95876AF64909F
:1038D00005C86381EFAF3D3666DAA324F6158B4841
:1038E00040665380A32E6B5AFE0F3C3C1B977A3FD9
:1038F0008A979A41FC02C665A2B0BCDF92A2E2C3DD
:103900001354C7F2B00CA86FEE3AEA1FA3FD1B2DAB
:10391000A5A4BAE5CC1FEE251FC8AE17FF00535F64
:103920005163BB29D2FA74C4AC649B9DA4D147E215
:10393000DFC6F3B96F2DE14ED6AB0DB7ED72249B08
:1039400096A233D2AAB50878E8430EE90F4697E568
:10395000B03597D56EB13A359368B613FF00BEB84F
:10396000044CC3FA01EE285FF4D1F4A1B50BE4EBEB
:103970004D6ADB758C4C3F408FFD4C39DF58AE7A79
:1039800090C0B4875CB0177303DC9EF5DF3216116C
:103990008DD80464003C2F8A5E6E1AEC2CC81B3D47
:1039A0000FE87564D3ADFDC86905FCF88D852EA9B7
:1039B000A5E7E60D599D08298A4114DB83D51CF53E
:1039C000F0A17E52AA85EA4B1EDA6315ABB85C0EF5
:1039D000FC56BFEA1D6E3B47955AE318F15516CDCC
:1039E000DB79B1EE6B2EE3DBF5A60AFA0AB8EAA999
:1039F00027898E43C67383F2ADD88F71A7CBA4DB22
:103A0000B59CF05C0E1E3606B43EB1AA9D46E999FF
:103A1000E43B41C061CD74D22ADB078B9B6A0DF574
:103A2000B76923A13E4474B78A18B124F495230DD5
:103A300025300E495493BA301EA5D69BB98A7D1203
:103A4000F1ADE63FCB627D37F0C955EBEB4B8840DB
:103A500091D1951B904AE01A54DD76FC91D6544DD5
:103A60005B4CD14EF1E3AB3678392A1225ECBE5EC1
:103A700040007BE98C778AC8086A512C45949AFAF1
:103A800096C82399E49A12C4E190A64C684298150E
:103A900047CB71049F61A216EF3814BA546C62AA26
:103AA000A7B0324824FA72556B7CB11AAE42ACEB27
:103AB000C595BD8280413A323BA2BCB50ACAE38AB1
:103AC000F2A1B0F9551514A23666A1A95A59189356
:103AD000CFC874F3A194FF007281943A965B8F6A09
:103AE00038FEAA8DE2F6AB8ABF1B6442E228A944E5
:103AF000A655116000254655E48AC7B61875463D9F
:103B00000F6D0A6F9BCBD789083EE6ED46966D9EFA
:103B1000F31A2998C514A0793346D1AAC4524EA0ED
:103B2000A3B60F7EE0E467434BA8A6E218F8AF1EE9
:103B300032FF00CBDBBB3DABE7C5EF172D9E0CED95
:103B4000536EB6D148FE265CE075A50CA8F2DAE10A
:103B50009329255BBE58C6EDFF00A2A0E0F7D11A5D
:103B60003E9326B573EABCA23B08C827FF0033F199
:103B70005B13A17A5DDEF22D46FA093F491F2A88C0
:103B80003F77E735CC5ACDEB5C9C9A0B710C7AB33E
:103B90003B7524F727006B65C5A1DBBED0F71ED1AE
:103BA000C003E057424FD506C9112D34F50AAA00CB
:103BB0000D8CFF00EAA9E8F715CEEF72A4B72D042B
:103BC0006F5351208D4AFB0EE4FEC0674C868D0476
:103BD000719293700556EFBAF24B65325C58C7B7D5
:103BE000F3CFF8A776D4D8D334B05CEBA36678656E
:103BF0000F1C28BD1D81F4F2CE93C995731ABF9C8A
:103C00000FCD50FA93EA0A5E69F3C30DB6C0D19C9A
:103C100092724D2FFC51DE90EE4BCC5414FC4DB6FD
:103C2000D4D2A2CA3B4F54C712483FDABF9575633E
:103C3000B781ADAD8404E643EE6AADF42E8A9033CD
:103C4000EB374BB5E57CC4BF094AF69E11D55B5FE7
:103C50007A4FC035B49AEE08BC649E6BC1EBC2F7D4
:103C60008FA7C9D48B6E4F9C50CDA9A03FB322BC67
:103C700045C493958C646A436E73FBEA07D5518EF5
:103C8000D480163E0FC56EEFC2FF008D15164A1F79
:103C9000F4FEFCCBECD79045415254C8F447DC917C
:103CA000EF083EDEDAD7BD57616E255FD29CDC1E81
:103CB0005C56A6EADB58A5BC13DBC2A927F5A8AD64
:103CC0007DBA3C29B3DF2317FB04F1CF4B58A6780C
:103CD000EA69E5E42507B70704EA8CB7735B3ED9C8
:103CE00078C553A45FE80986F3486BA6D6B850C8D8
:103CF00068EAA8A589D8BA01F9578A0F54A48ECAD0
:103D00003E4E9943768FEE2F4BA6B73CFCF8AAD1D6
:103D100063959218A083952BA00597D25867242FFE
:103D2000C2803AE8B1751E29749038E4D5E5BEC862
:103D3000E8F1C72827966466618CB37BFEC3DB512C
:103D40003DD2639A0A48DDF9345B4565C797CB805D
:103D500003AB7B0C1EB8FD34049A82A0A17F4AEC11
:103D6000785A285DBB2B2AB2473942015C239183E4
:103D7000DB1A587546C9C06C7E68D1A6CB81EEAC03
:103D80008D577BA85A2B851C950E60AC8CC6EA3EDD
:103D900055B92B283FD43E7BEAF16F3B23A915612F
:103DA0006B42390292379A2A9A0912A948093B7A3A
:103DB00059812B9030320F55E40E01F6D5AACEE68C
:103DC0002990AE7DD59C6ACBED6EC2A86090BAF00A
:103DD000E604EAE4012F4657E3903EF9C633EE3499
:103DE000591B7F1528CD5ED2C5F9872C602FEFD0E7
:103DF000807F5D2BB8941C83CAD176EE616063240A
:103E000072391DC1ABAA7DCD5B6B02369A4283AE7F
:103E1000172D81FA0D239B4782ED8B2C6BB8F6AEE4
:103E200080E82FA812C317F0ED42E1B60C088935DF
:103E3000734DE205090ACF5B1B163C55438676633A
:103E4000D9428EA49F8D047A5EED9BD18A06C9F873
:103E500015BAD3AD6C20B77B99EE94245DCEECD629
:103E6000FDFC3F7E1BEE5BBA6A7DE1E30524B6FDF7
:103E7000BA8CB25BB6C4DE9A8B8670C25AD51D521C
:103E80001F88FBB6B6AF48F41DAE9AF16A5A962762
:103E9000B8C0291370131F35CDFF00547EB55E6A7C
:103EA000B0CDA174DCEF15B82565BB4E0953E056C3
:103EB0009EF1CBF13961F07A8BFD17B2D60ABF10B3
:103EC00024A510D2514257E92CB170E293D5F1E804
:103ED0000A7FE943DCEAE1D4BD4767A0DA19E428A8
:103EE00066230888735ABFE9D7D3AD63AE35446003
:103EF000255B0DF9B9B87E77D736AD16BBA5FEAEFA
:103F0000798CF255DCAA2492A6AEAA5EAD34F2B149
:103F10007925958FBB93AE47EA4D7CDD5E4F7F7E62
:103F2000FEE76E057E9174F68569D3FA3DA6996227
:103F30009E925BC6AA08F9A8B593B51DC6AAD9502A
:103F4000E16A217F2641FEE0342450FAD6F15CC4B8
:103F5000B9475DF4C24B95576577F7D4692B5790F5
:103F60005128F803592C048E52B08EE326A6453A08
:103F70003A67B646A078886ED5334CB56FB5769D56
:103F8000D3C45DD36FD956390C6F3A355D75574040
:103F900029E8A123CD71CBFA8E7083E75B0BE9E7AB
:103FA00048CDD49ABC6ACA56DA321A47F1815A9F70
:103FB000EA8F5D41D29A34D26F02E644291283CE51
:103FC0004F9ADE3E2778A968F023C3EB4EC1F0FE7E
:103FD0009A18AFF25235259E238916861ED256CDE9
:103FE000FDC4124A83F9DF5D5BD4FAEE99D0FA0280
:103FF000B46545CAC262B58BCB11E4D70DF47744E2
:10400000EB5F55FAC1EE6766FD089FD5BB9D81C188
:104010004CFEC15CF315EB14657CC679589791DDB5
:10402000B2F248E793BB93DD989249D711EAB757AC
:104030007ACDFDC6A17B2979A576624FDCD7E966EA
:104040008B6161A169D69A5E9F12C76D6F1AA2AA91
:104050000C7618A8F3DC78C2CBCF0DF0741C76B9BF
:1040600061EDA6125C261A9677EAD52B290DD48C21
:10407000633AB5E9D0729EDAABEA537B58D05A5412
:1040800018473E78C75CE9E7A5EA30503CD5565B57
:10409000D10C321DD8C679ADA7F85BD93B6EE7B419
:1040A000F70EE2DFDB6E82E5417AAC892D905C6928
:1040B000E39714D480A34E0B8C81231FF035611637
:1040C0007E9C51A2B1F53EDDFF0002B907EA6F51B7
:1040D000DC5E6B2C2D5CAC71654843C31A57F8C18C
:1040E000BABC2F4AFABDABE12ED1B35051C13B252A
:1040F000C6FF00450025DD3A34146ED9E9ECEE3FE9
:104100006D7D773FE8A131CB2192E5870BF00D3A29
:10411000FA71D13A9EB5729AC6B2ECB62B868E026F
:104120007BE3CD2AB65788F7DF0D2FA2F3B6AAC0DE
:10413000F310C35B49265A9EAE9DBAB4532FB83EC6
:10414000C7B83D46AAF77A6C5AA5B986ED727FA525
:104150008775FB835BEB55D034FBFB46B630018E95
:1041600001ADCBB1F7EF875E2D454D4F6AB947677B
:10417000DD0DC5E6B25C6548E49255EA4534D27A75
:1041800067427B0E8FAD7DA8E93ABE8BBDFD1371F2
:104190006A39596219C0F822B49EB9D2379A73B3FA
:1041A000221781491814C5A8D81534B341E6D23274
:1041B0008895A1456057F377234A575427FEE1C1FC
:1041C000FED6041154696DDC3152A720FEDF22AA0D
:1041D0006B361D4542572C5D1E657208F4956F23A2
:1041E000C91FF234745AA44DB496E186DA1BF4AFB9
:1041F0009FDA6BDA8F64355D5256FD070696892982
:10420000E60F901993AA671D415C9539F6D7CFAC9C
:10421000469184F53DEBF35EAD94A7902AFD3655AB
:1042200016DDB7CB5FB9A6A6B6DB2923100BA5CA4E
:1042300065A78E4A60D94476931978FF00A7B93AEA
:104240000CEA1737AE91D94524921EC231C534B25B
:10425000D06F2F8E218D89FF00C4566CF107F1318C
:10426000B7F6DC13D93C2F805D6ECB9885FAAA1F78
:104270002E9211F3042DFF0079BE19801AB7695DE3
:104280002F717056E35790A2372201FBB23E6B624A
:10429000E85F4FDD5A3B9D41071C84FF00F75852F1
:1042A000F55F79DC15F5977BDDC26ABB955C8F3DC8
:1042B0004CF3373924918E4924EB60DB8B6B5558D6
:1042C000608C2C6A30A056CE8AC56DA311C51848E3
:1042D000946028A15A8A75EA8D939F73DB4CA3974B
:1042E000B15A1668636CE579A33F07ECD0D678899C
:1042F0004713C6851682BE5C9C74C458FF003D748B
:10430000D96726CEEBE768C56A0FA8ECB6D650B2DF
:104310008C7BC56D4B7D869A18625550AAAEA4124F
:104320003E1B55B8999EE6207BFA82B4E6A77AC672
:10433000CDD877095CD1BA2A3DC2E217AAFD5D4605
:104340001BE4798DAB8C99591AB7AF4EA07D134DF4
:1043500067EFE883545340171C720FC8D671C99E8B
:104360001A98CD103CA1A86DE627471C93E744801E
:104370000F6A5ECCEA4EE19AFA89D9E78208933255
:1043800048EA8A3E598E06BC6C2C6EEDC2AA924F4A
:10439000D854125C88959C0F7015A3BC86B65BE957
:1043A000A820F4AC1185C8F720753FB9D6B67717A9
:1043B0005752CF27F531FF0081DAA9970CD712C9E0
:1043C0002B8EE6983E1D78CFBE7C2FAC32D82E2B9C
:1043D0002DB1DCB3DAEBC19E8A5F51070A4828DFB2
:1043E00075D4775A5DA5FAE1D30DE31C1A597369A8
:1043F00019394EE6B4FD17E2BFC2FDC94C89BEF6BD
:10440000A5CECD5BD15EA6D856B698E7BB052524D0
:104410004D2297A52F5093693875F0A78C5287B31A
:10442000937100E455E4FE297E1CAA2132C3BEA686
:1044300085814658A5B7D4AC8BC4E474E27401D12D
:1044400075F53B0DB923C1CD41259678341B3F8DC1
:104450001E10C329A7B457DEEEAE07786885323147
:10446000F9669587FE359FFD37AD4AB8748D7FFCA0
:10447000A8496D238865850D3F89B5F7E9EE16BB20
:104480000DB05BAA645314352D279F2A8618F308B4
:104490000028C77D3C83A56DAC2D85E6A12199C779
:1044A0002B11E14D20BABD6491046A362F7354C9B3
:1044B000B54945355E216E996A481E6CA6ED32F30A
:1044C0007FEA6C2B6064EBE37E3FA2C6D157C2FA51
:1044D0005D87C50A75F972711F19A50DC6A8212738
:1044E0003EAEA48D47086DD8C55F9622D8E285AA56
:1044F0002A44B1182A23F36261FCC561D1869AC2AD
:104500001E290321ACE4B6523EF42C2987D416565A
:104510007E6BE9532618B467A819F7FDFAE9F9B8D4
:10452000CC60922806464252AE56A6962055E545E6
:1045300093D94B75EBA5EF148D9703DB455BC0E476
:104540006EC7151E966582E9453F70955148E7FD97
:10455000A18138D465D8DBB853B5B69C7E69A8264E
:1045600025F6F0D4F6AEBDC3B43753EE1B56D7B51F
:10457000D594984A1A5A740E0FE6F430191A8741E6
:10458000EA5BDB7189651B9491CD58B4ABAB3D4EB2
:1045900037D33519DA253CFA99A28DD5F8BBF12F1E
:1045A00070D10B4D82A536D501CACF25B98BD74A1C
:1045B0000F42A277FF00B6BFA75D5BEEBAAEF1E097
:1045C00029129590F793ED575D03E956846E92E6B4
:1045D000FE61716CC432229EFF009A4F5B2E786997
:1045E000AB26994CD2399669266324D2C8DD599DF1
:1045F000DB2598FB93AD6FAABDD5FBB7AF2BC8DE0B
:1046000009F15D2DD3B0E9BA4DBA5AD85BA410A711
:10461000648C0C9AD4DE046E7A6BE4F7EA09238882
:10462000086189E2455C318CE51CEB4EFD40D2E52A
:10463000B1B6B3B84DE599C873E011DAB62E9F73E1
:104640000DDA9546F72F8A0CF1A36EB5AB772DC620
:10465000998A52D753472023B174F430FD74F7A2DE
:10466000B514BDD1960971EB404A9155FD6ACE58FB
:10467000EE96519D8D4A3FAB780272391DBA9CEA85
:10468000D62112670295ACCF13F24E2AC85F23825F
:1046900009267902AA29627E02FEBA8469EF34C231
:1046A000344259B0A3F26BEBAD4A2B68649E5900BB
:1046B00040A4F35B0FC15A9B1F85DE1EDC7C45DDE9
:1046C0004F1A5EAED09AB2CC01923A5ED4D4684909
:1046D000E8D274247C9D759741E93A7F4CE80B340D
:1046E000DB51C219E776EF80338AE13FA99ACEA762
:1046F000D6FD4AB6166CCFEF10C48A09C782D5978B
:104700003726F1AADD57BB9EE3B9C9FF00CC2BE5E4
:10471000F31D09E42141D23853FDA835CFBD75D42E
:10472000173D57ADDD5E722C94ED853C2AAFC0AECF
:10473000BDFA6BD2965D0FD3363A74441B960AF7D6
:104740003263DC5CF272685E6B82861972723FF1D2
:10475000AA8C76CC5784ABEBDD221624F9AA4AFB4F
:10476000B860424BFAE8E82CCA9F725013EA0BDD9E
:104770005A82EE3712FF00CBE63EDA796D6A14EE0C
:10478000C1AAD5FEA2082BBABEF6C58EAB796E1AA9
:104790001DB91CA22A79B32D6CFED152A7E73F6246
:1047A000DD974FAC6D973EAB2F03B7E6B5AF5875AD
:1047B0000A69F612C48F991C60E3E0D3C3C60F13D5
:1047C000CD2D0C1E196D0AB305BA969D29AE135254
:1047D0001E3C2055C251C6C3B123F391EDA6ED2175
:1047E000B387D59706E5FF0060FED5AD4BD27D308F
:1047F0009D41A8CB7F751FFB389C37BC6771ACF11E
:104800001CA91C4B0C4A16255C2AAF61FA6355792A
:1048100037CAE6490E589C9CD7455AAC56D12DB4A0
:104820002816345C000638A852CA1BB9EBA9514AB5
:10483000F6AC259914FB9C28F93E2B497835F8797C
:10484000BC6FE48371EE3FA8B76D4C8920E2BC6A6F
:104850006B40F78B3F913FDFA3A2837B10572B8EDA
:1048600045694EBCFA8B6DA4C6F65A7627BF2482E2
:10487000C7DCA2B7850D75D362DBA9ED3B72B251DF
:10488000414A8160A7AD635CB91D064D41638FDF6E
:10489000559D6B41D32F18EFB4446FEE4E0D689BBE
:1048A0005D57519EF65BA79999E5CB15C7B466ACE9
:1048B00093C66BE53A3B54ED9B1CAC7BC8F04A8C2D
:1048C0004B0E9855703A1EFAA9C3D17A73CD869EC5
:1048D00060A3EE29E4DA85E0466814193679ED59CB
:1048E0003BC48FC5378EB61BBD45A6DEF62B3D04F7
:1048F000E33475D69B5A739A21F0F52652922FBE57
:10490000AC67E9E6876816EB64B386E72EC4283FF8
:1049100006B67FD3BB8D17A862586E601FC4621B9A
:104920006588F1DBCD65EDC5BC3766F5A9FAEDD735
:10493000B8AE377A9EA55EBEA1E6E1F6456385FD79
:10494000B45416B6B63ECB4823847FE2A2B785A600
:104950009B6B6EBFC8B4553F2302853C8C722467A5
:104960003D745FAA5BCF35318D94FEDC7CD7EBC6FE
:104970000AFCF4EBAF83F35F483DB8A1FAB4EE0054
:10498000D3281B38A4D72AC32051C782713BF8997A
:104990006E1132054A0AD76320E9C4A71C0F83A70A
:1049A00071026D2E4E7C5696FAA671616E31CEF173
:1049B0005AEF705EE1DB960BC5C6774094D4551371
:1049C0002F32039608DC42FC92DEDA5B616AD35D2B
:1049D00086F0A77568B94CB37E96DA35DCF3C8B1BA
:1049E000E3ED9AE6316629EAFCE464FEA7A9D592D4
:1049F000439726BA5F4FB7F434FB483B1440BFF1EE
:104A0000505DF18CB646359AAEEEC3FE2A576DAABC
:104A1000D819F9AF2E8C338F7D4BFB7CF340991066
:104A2000F0719F3CD5AED7811F72D9798CAFD4A9D4
:104A3000C77EA3AE86D45D869D76467FED9A5D786F
:104A400080C526CC118EF9A7C4D19790A907A127BC
:104A50005AEA370141CF38AA900406C9AA0AF731A9
:104A6000650FB9F6F67CE4E3EC469A5B0DD86A0C68
:104A7000B6770A18A8A923A7959524FDB3F6D3788D
:104A8000906339A1F700C49A8B9A9A999003EA240B
:104A900002C41C11FEED1036A83E686774058E69CD
:104AA0009360B7C76D8C554D282ED8EAFEC47F4859
:104AB000D431A09E4C38C0AA8EA97924C1A1881DEA
:104AC000C3E29DFB663868AD15178499927AD721A9
:104AD00038019F2C7600FB06C64EABDABDCB5DEAF3
:104AE000096B1F3147DEABB3A48B18461EEAAC92AC
:104AF000F12191C9E5D58FF5E8916C981C0A032046
:104B000071814B8B9339F5F5C7BFEBA5CB01539260
:104B10002B6CC52A9000342335410CD890213F3DA1
:104B20007472479EE288CAE6A2CB56638839248015
:104B30007BFC83A2D13C50F24796CD4758229A4441
:104B4000A9F2F3385E8DEE35934E554C449DA6A7E1
:104B50008CBEDD832054F8E9E6C0673DCF6EFDB41E
:104B6000233A6085353904E29A2F542E1434D54205
:104B70004FE73208E5544FCAE838904FDF55C65129
:104B80000DC37B7DA7B5072131B6FEC479F8A0FA25
:104B9000DA0A7AB73C82A4C73C5D0609C7F70D3A2A
:104BA0008E668E3563C8F8ABCF48F55EA1677F6926
:104BB000632DC6EB596455C93F34333A4D48FC1A4E
:104BC00052CBEC50E4688431CC3760035D1CA6FA0C
:104BD000211306DD1E770653E29CFE0D5F6A76EE1A
:104BE000E7B75C989FA577FA5A85F66867F41CFECC
:104BF0009DF54AEB3B18B50D32E6D063785F513F27
:104C0000FB2D6C3E949A6DFBD89C1EF5B577CEDCDF
:104C10008775D9E7B63F14AFA7264A3948E81C0E76
:104C2000C4FF006B63AEB4674F6A4FA45FAB1CFE5A
:104C300099DB64A3EF5B1EEEC56FED5C023728CAFB
:104C4000D60CBDD7B5AEBAA6D771A7782BA99DA2B1
:104C50009227E8C08D74158DA1B9B78EEADDB7C370
:104C6000200C1876C1AD4BA95DFE92568265DAEA3A
:104C700048AA5B5DEED66E5054DDE53FC328E4499B
:104C8000CC0067EA6543958883FD00F56D5BB47BD6
:104C9000286DAE126981383B8035AC7AC352D46E30
:104CA000AD1ECF4F524B9C657B8AB2DEFE2C5FB7A8
:104CB0009CC22AA95A3B4C12F9B4D4C3D219C74F8B
:104CC00031C0FF0081EDAB1EB1ADDC5EC06CA291C6
:104CD000D60236BF3FB87DEAB5D1FD2306937035C5
:104CE0006BB456D44E7D30DCEDDDDCD2FDF70D5AD1
:104CF0009044875521A6C27C78C56D11AA5D2E57B8
:104D00001F63FE2A24BB86B5BA1739D4CBA6C0319F
:104D1000C0E2B09754BA6C96739AAE92EF58D9E449
:104D2000E4FDB45258C38E1452D96FE720E49AAA16
:104D30009AE753904E4FEA746476910FC522BAD425
:104D40002545662B9A35DA9BBC6D9B6DD2A60491E6
:104D5000AFB5311CBF6040E888A7FB4773A3A31120
:104D600006540311AF2456AFD6567D4EEFD2973975
:104D700063C5505254B7132D4C85EA656696676338
:104D800092D239CB313F73A577DBE69988391E2B58
:104D900068E896F069FA7DBDB22AAB05F762AC5EB1
:104DA000B140C0EFA5E2DDB3CD3A6B88C024363800
:104DB000AD49F87AF04577AD641BBF785391B56182
:104DC0007CD15248389B8CCBD7273FFA0A7BFF0017
:104DD000768C860C900038AD43D7BD6AB6501B1B4D
:104DE00017CCCE0AB329E4574EE18C45450C10246C
:104DF000694EA04691C4178C6AA3A280318C6AC107
:104E0000059E141239AE68BC966B89A496562D2364
:104E10003679A586E4A35467E70FE66CF155CF4ECB
:104E2000C41C7DFAE96DDE9D23B9C21228FB093648
:104E30000DA78A58565B6FB7090454B41232392350
:104E40009852067B1049FB8CE341C1A04D2C984839
:104E5000CFE48A78751B585332B0ED8DB5E7BAFCB4
:104E6000103B87625DA8A68C7F1E48CDC6DB284C10
:104E7000F97514CA5B81C7B4AA0A1035B3744E9988
:104E80005BCD36F34C94032CC99463DD4A8CF1540A
:104E9000F1D653F4CF55E93AE5BB30B659563B88C5
:104EA000D4E15E227196AE7E25393007EA33D0EB2D
:104EB000465EC6F67793DACAB87858A1FC835FA13C
:104EC0009A7CD16A3A75A5FDB9CC53C6920C7C3058
:104ED000CD4378C0503E0FEFD75886C9A90A36484F
:104EE0002322BC5D085E441E2723A6A4079E2A0930
:104EF00050E326872B580C85F6D33B7CF934A6E586
:104F0000864D30BC08A0FAEDEF75AA62CA94768986
:104F100018B7651E6B84C369D16315A31033B8E05D
:104F20008AD05F5566CC36D10EFBA8ABF1057C1458
:104F3000D67B56DCA47C1B9D419AAB3D1FC8A5F5D2
:104F40000523D8339D13A5C621B696EBB312456B46
:104F5000BE8CD3FF00896BA8652765B2EEE3C31A48
:104F6000CA7416BADBB56A50D0446499CE7ECA07BB
:104F700076627B01A9A7B98AD6369A7601719E6BB3
:104F80007ADCDC47668D23B8002E157E69B76AD9B6
:104F9000163B4224B7054B856F466F33FEC21FEDAB
:104FA00055F7FD4EAA179D417370C52D331C7F2305
:104FB000F71AA2DE6AB7374ECB112179A255AAA5FE
:104FC000811963A2A648C0C71589028FDB1A565AF9
:104FD000EA4219AEA5DD9F9A4AF24E09533B83F689
:104FE00035F496EDAF5D3D3CD576C863AD8A412280
:104FF0004F028826561D73E8C67F71A99EF7548616
:10500000278D27263652A56439522A337979182AF2
:1050100024623EE6AF6E3602F04B5F6F769A941CC8
:10502000BF4F5A74CF5C6954772CA55660013E453A
:105030004515F06244830F4B4B808E3243C63B0EC6
:105040005CBD87B6ACB64E48383915F3920EEF0604
:10505000A83FE8C48B1B91D08C13A6C19F1800D029
:10506000933B60F15E93D6D1D342CDE9000E213D52
:10507000B1DFA6A78D2427B1A5ECB2487B11550F4F
:10508000B86AAA29FE9D18F92A30ADCBA9D14606E7
:1050900051BAB15D3A18D8C879635AEE5A7FA5DB88
:1050A000566A588718D68A9C638F5398C3743F7C7E
:1050B000EA8D6926EBE9DDCF3BD860D5635488FAE9
:1050C000BC76A0479F0EE3CE41863D0420E3F72740
:1050D0004F848948CC4327DA281E7AFE71F0520AA1
:1050E0009D67E9A9EE2AFD1961E684EAE741EA0C29
:1050F000509CE09191FE7DC0F8D64A83C0A611C9AC
:10510000F355FF00534D894D4D4C69022066926660
:10511000650093D303E33A9C4323E0468CCE7B05A2
:10512000A294862079ABBB4DCB6EE42CF77A5C7BE6
:105130007F30119D2EBDB3D47BA5ACB46A2A8C837D
:10514000575557ADACA9C96F146A00C9E728273E67
:10515000FD17AE81834ED559B9B59327ED5E6D1518
:105160004F0788FB768ABA2B7472CB3514CC166A3B
:10517000A5CF9511EC1829C16FB9D323D317D2DB72
:1051800034CC42CEA372AF93504B16E0698BFC3DFA
:105190005C2CB010D130E6AC0E55837507D270741C
:1051A0008FD768C98648C8917820D2B532413ABABB
:1051B000E41560411E08A8B3EDD8E695675F4B671C
:1051C0002C807424FBAEA392EDA18D8E78ADFBD024
:1051D0007D7F2DDAC5A2EA1193313B6294F95FBD60
:1051E00015DAADE28A28D58618E7047D86755BBCA2
:1051F000B933B13E2BA7F4368E189381EEADB5B11D
:105200006EB4BBBF6FD1CF1499BC524290D7C5FDCD
:105210004401C5661F66D68CEA5B29349BE9599424
:105220008B499CB230EC0FC55D6CEFFD26F4DBF6CC
:105230009ED419BF7C23DBDBE5D6AEE142A97B819E
:10524000384352B91C80ECB2E3F301A79D39D71A59
:1052500086891FE992E49B363921B9C7E2A2D6F4C8
:105260004B3D56079D638BF58A9EC771ED27E0E2A3
:10527000B25788BB36B767C7F4B2EDBA6449079432
:105280002AD0B92BF050E7041D6E6E9AD76DB592F7
:10529000654D45DDFBFA478AD2F3CD7D65249A5EE4
:1052A000A9A0410DC31222B8419461F39349092981
:1052B00026E218A9EA33ABAFAC99EF4BC5A48A0E2E
:1052C00017B645419559339FDF53A9DD43B61460A6
:1052D000F8E2A1B86E47D88EBFB68803141C8C7F45
:1052E000BABC1CF5CB6A41DA8691C05E6AB67721FA
:1052F0008E7F5E9A2A34C8E2915E4C029E2ABA6B77
:10530000E4940C447047244C854F304E09D328ACAC
:105310009644F7356B4D635692DAF96487195F3816
:10532000CD105B655BA53ACB4E4994839880CB0248
:1053300034AAEA216AC7D560133C1357ED1B553ACE
:105340009227A232FB14301C9C9A74783DB4369D8F
:10535000EB70415DE245FA5B66DAA6990CB0454513
:105360005359354E3FB96053C221FD47B9F6D611A6
:105370001D3E5758DEFA18893DD8D0BD4D3754C16F
:105380006327F08D127B87C1CB015DC6D89E1B6C55
:10539000EBDEDAB66E0DA774A4BE6D578921A7ADFA
:1053A000B4CA1E963E23021745C189D7DD180235BF
:1053B00071B7D1A289164C2C818655E3395AE57B09
:1053C000FD4EFE5BC99354B6961B8C90EAE3186FB2
:1053D0008A6AD2787F658E3A7C5082AB90430239DC
:1053E00068CFD3AA80365051832B965ABC6D816208
:1053F000ACA60BFC3A1126187AC65338EDA263818D
:105400001872A2B168AE14960687EA36444A65441B
:10541000B7C6BEA38E98EEC3B1F8FB699456E98C6B
:105420002281F814B67DF9F7126AB6976918E687F3
:10543000942A7120E4BDB1F39F8E9FBE9CE9C7F40E
:10544000D750BE706ABDACA0B8B5957CECAE1FEF6E
:10545000FB08DB9BCF7AD838845B76E0B951851E98
:10546000CB1D43711D7EDAE75EBC845B7566A48349
:10547000B33EFE3EF5FA37F48E71A87D3EE9E9FEB3
:105480006D15493F29C52F648829C9C7419FD75544
:1054900094726AF0E36F2455456B60715C633D3430
:1054A0006C3C9C9A5F75FB6852B1872271D40EBA2E
:1054B0007100E2ABB73925A9BFE01A24759BB6E2AB
:1054C000CA3A474B481F1D72CCD2151F6D399B8BB2
:1054D0003543DC9E2B9BFEA74A26BEB78C36768CC6
:1054E00091403E335DBF8D6FC34B02B9143491526E
:1054F00046A3DE49D8CAC07F91A3C28B7B28D09136
:10550000B71BD8D49F4DACC4106A7A93AE159F01D7
:105510008FC0A2FDAFB5E1B1DB562215ABE501AA04
:10552000E51DCB7F603FDABAD6FAC6A8F7F7384256
:1055300044009555F1C79A9757D4A4BCB990162545
:10554000031152ABA0407008CF519D616E8D85A5AF
:1055500086E0818AA39208CAE3DB3F381A6F1C4CAD
:10556000D8A80CC320E6BDA968D1896798A11D11F0
:10557000113F3376FEBC7EE7449B42C324714B6EE1
:10558000AEFDD914CCDB02BE8EAF2E56A299881385
:1055900095432148FA025F8F21C74AAF74AF501676
:1055A0005E08E463E6954B7EA32CCB822967E35D1E
:1055B0009D366D6D0D6880B596EA865A69A13C915D
:1055C000241D5A33FF0091A6BA0D9493C6CA5B13EB
:1055D000277534C74CD4A3BE43106F7A9CFF008A52
:1055E000CED3DD926C7915084E3001E87FE756F88E
:1055F0006CD9061E3CD342833C8AA5AAABA8278C53
:10560000B29E9F3A2D2251D92B2D8BF02A6D1D4829
:10561000F25472EB920EA392225BED43CB1F390240
:10562000B776DCB8D3DFFC2FDAB7A8C879A9E27B5C
:105630004D663F324D49FF00ED003AD657B03D96DA
:10564000AF71190423FBE36F8CD54EF61225284762
:1056500027B1A0A79A32EF990A9E47D223C81F6D9F
:105660001A1C60714A4D9B64F14975AA90A8883A4A
:10567000F2C9F2D73F9C1EB819D58FD215661C7798
:10568000ED5E3254796FEB9382BF12AEA3A019C3C3
:105690007307A646BC110CE077A951B24E380050F2
:1056A000DEF575A3B4C71B3B79F57390149EC9173B
:1056B000E6E87DB38E3A65A4297959C8E138E28BD2
:1056C000B3732B1CF8A528639C05D594D35AFC040E
:1056D00072D7DC915ED7BA31F6EFAC0839AFA98F3B
:1056E000B4BC48BAEDA0947320ADB583FF006253FB
:1056F0008741EFE5BF5E3A41AAF4FDAEA3EF198AF8
:105700007FEE5A85E156F15A0F6E7893B4EFB3529B
:10571000243552D2D59701A9EAD718CF4F4B0E871F
:105720005AEB58E9AD52CA2908FE6C0390CBDE9CB7
:10573000F4A4A2C35BB19E43EC5930D9F8A69D55A1
:105740003F94236118E04384C1EE0F4D51A3724B87
:10575000213EF1FB948ED5D9FA3EAB6F3476ECB294
:10576000A953FB40AB4DADBA2EBB52E34973B4D441
:10577000F973C40A4A87AA4899FC8E3DD4E85D4F64
:105780004CB7D4E09ADAEA3CA3721BC83F22AD9131
:10579000DDA4F1B8CFBD5B820D68DB778DFB2EBD3C
:1057A000628B72514F6CAD70794F08F3A9811EFD69
:1057B0003D4396B5B5DF416AF17AADA75C2CF18E19
:1057C0005637F6B60F8147FEBE7B7F4C6F2509AF7B
:1057D0004BE6F8F03F72D155596F5B9A09A9678D76
:1057E000D194C3282A54672AE0655BE35F69BA074E
:1057F0005DE95711DF59D8959108382C3047E29769
:105800006A3A869F7ABE85DC2AE7C13DC5647DF988
:10581000B236BDAADF5B7FD9BB845E2C10F29DA09F
:10582000F2996BE993B3738C81CD3FDC3F7D6E9D24
:105830000758D4EF66B7B1D52C8DB5FB7B72CDFC84
:10584000A73F66AA76B13DAE97617177B43408B9C7
:10585000DA0F3599C5D2D95C0C94E27E01B1C9D476
:10586000038F8235B27F45756FC3ED3C0FDA6B4510
:10587000DDFD46D31DCA243228CF735F429A06420B
:10588000E932FA3FA5CF162A7E33DF1AF8BCA0ED25
:1058900028698D9F556997A836CC33F738AA4A8C6A
:1058A00046CDCE442A0E41E40023EDA363476002B7
:1058B000A1ACE6D5ED01C19D08FCD0DDCEEB4B08D7
:1058C000F2E22249F1952A7207D8E9A5AD9CCC7283
:1058D000FC2D5435BEA281633140434873C8355F07
:1058E00046A2E53245147969301830E9A2E53FA7B0
:1058F0001B89E055334EB4BAD62F9608DBDEE7DCC1
:105900007C015AE3C0FD9D4D416EAEDC1241133364
:1059100037914CC7AE7E482DAD39D79AEC92DCC595
:105920006314AC853DF2015D63F4BFA3E1D32CDECB
:10593000F66811E566D8AE47814F882C94A8C260FE
:10594000AA19BBE060EB5BC9A8CC7DBB893F9ADCA0
:1059500002C6004B085707B8C7068AB646EBDEDE1C
:1059600013EE57DD5E1B5F5ED3729302BE9197CE3E
:10597000B75CE31FD15B4C48593ECDD1C7B1D5EBE5
:10598000A5FEA2EA7A205B79DBF51699FF00B6C77F
:10599000B7E0D6A5EBFF00A43D3DD5A8D30852DA69
:1059A000FCF6745C65BE6B72787BF8E6DBD5F5506F
:1059B0005078C9B18D81C90AFB836E17AFB6E4FB7D
:1059C000D4D2480CD0AFDD4BEB7568FD7FA16B5B8B
:1059D00010CA20B83C6D90E064F806B957AA7E84DE
:1059E000F52F4F87B8B4537502E7260E5BFE2B7672
:1059F000D96E9B7371DA28F706D4BAD0DDB6ED4ABA
:105A0000F3A6B8DB265A9A797E4064CE187BA9C1EA
:105A10001ABA8036ABAB6430C802B4CCD15C59CC76
:105A2000F6D76A51C1DA770C55A3C14D3C4730F225
:105A3000C742E57DBBF5D1304AC0E452D9EDB793FA
:105A400042F5B430FD42AD247D199532C319CFB96A
:105A500027DB1A3E39F74B173DF1FE3348AF6CF1A7
:105A60000CC73938E07C83E2BFCEFF008B3768EF8C
:105A7000FE24F88779A725A9EB772DD2785CFF0063
:105A8000547E7B221FF0BAE7EEB9BA5B9EA8D44AD7
:105A9000B060AC0647D857E89FD24D364D2FE9E7A6
:105AA0004FDB4CA55BD012907BE1A9475AE33C4306
:105AB0006ABF003DFC55C6E87BB8354354E9D79131
:105AC000C74FF2469842A73C0A5371DCE4D0C5594F
:105AD000279311A71001ED1F3486F1F6EFE3C707F6
